{
  "abi": [
    {
      "type": "constructor",
      "inputs": [],
      "stateMutability": "nonpayable"
    },
    {
      "type": "function",
      "name": "allPairs",
      "inputs": [
        {
          "name": "",
          "type": "uint256",
          "internalType": "uint256"
        }
      ],
      "outputs": [
        {
          "name": "",
          "type": "address",
          "internalType": "address"
        }
      ],
      "stateMutability": "view"
    },
    {
      "type": "function",
      "name": "createPool",
      "inputs": [
        {
          "name": "tokenA",
          "type": "address",
          "internalType": "address"
        },
        {
          "name": "tokenB",
          "type": "address",
          "internalType": "address"
        }
      ],
      "outputs": [
        {
          "name": "pool",
          "type": "address",
          "internalType": "address"
        }
      ],
      "stateMutability": "nonpayable"
    },
    {
      "type": "function",
      "name": "fee",
      "inputs": [],
      "outputs": [
        {
          "name": "",
          "type": "uint256",
          "internalType": "uint256"
        }
      ],
      "stateMutability": "view"
    },
    {
      "type": "function",
      "name": "feeRecipient",
      "inputs": [],
      "outputs": [
        {
          "name": "",
          "type": "address",
          "internalType": "address"
        }
      ],
      "stateMutability": "view"
    },
    {
      "type": "function",
      "name": "getFee",
      "inputs": [],
      "outputs": [
        {
          "name": "",
          "type": "uint256",
          "internalType": "uint256"
        }
      ],
      "stateMutability": "view"
    },
    {
      "type": "function",
      "name": "getFeeRecipient",
      "inputs": [],
      "outputs": [
        {
          "name": "",
          "type": "address",
          "internalType": "address"
        }
      ],
      "stateMutability": "view"
    },
    {
      "type": "function",
      "name": "getPair",
      "inputs": [
        {
          "name": "",
          "type": "address",
          "internalType": "address"
        },
        {
          "name": "",
          "type": "address",
          "internalType": "address"
        }
      ],
      "outputs": [
        {
          "name": "",
          "type": "address",
          "internalType": "address"
        }
      ],
      "stateMutability": "view"
    },
    {
      "type": "function",
      "name": "getPool",
      "inputs": [
        {
          "name": "tokenA",
          "type": "address",
          "internalType": "address"
        },
        {
          "name": "tokenB",
          "type": "address",
          "internalType": "address"
        }
      ],
      "outputs": [
        {
          "name": "",
          "type": "address",
          "internalType": "address"
        }
      ],
      "stateMutability": "view"
    },
    {
      "type": "function",
      "name": "getProtocolFeePortion",
      "inputs": [],
      "outputs": [
        {
          "name": "",
          "type": "uint256",
          "internalType": "uint256"
        }
      ],
      "stateMutability": "view"
    },
    {
      "type": "function",
      "name": "owner",
      "inputs": [],
      "outputs": [
        {
          "name": "",
          "type": "address",
          "internalType": "address"
        }
      ],
      "stateMutability": "view"
    },
    {
      "type": "function",
      "name": "protocolFeePortion",
      "inputs": [],
      "outputs": [
        {
          "name": "",
          "type": "uint256",
          "internalType": "uint256"
        }
      ],
      "stateMutability": "view"
    },
    {
      "type": "function",
      "name": "renounceOwnership",
      "inputs": [],
      "outputs": [],
      "stateMutability": "nonpayable"
    },
    {
      "type": "function",
      "name": "setFee",
      "inputs": [
        {
          "name": "_fee",
          "type": "uint256",
          "internalType": "uint256"
        }
      ],
      "outputs": [],
      "stateMutability": "nonpayable"
    },
    {
      "type": "function",
      "name": "setFeeRecipient",
      "inputs": [
        {
          "name": "_feeRecipient",
          "type": "address",
          "internalType": "address"
        }
      ],
      "outputs": [],
      "stateMutability": "nonpayable"
    },
    {
      "type": "function",
      "name": "setProtocolFeePortion",
      "inputs": [
        {
          "name": "_protocolFeePortion",
          "type": "uint256",
          "internalType": "uint256"
        }
      ],
      "outputs": [],
      "stateMutability": "nonpayable"
    },
    {
      "type": "function",
      "name": "transferOwnership",
      "inputs": [
        {
          "name": "newOwner",
          "type": "address",
          "internalType": "address"
        }
      ],
      "outputs": [],
      "stateMutability": "nonpayable"
    },
    {
      "type": "event",
      "name": "OwnershipTransferred",
      "inputs": [
        {
          "name": "previousOwner",
          "type": "address",
          "indexed": true,
          "internalType": "address"
        },
        {
          "name": "newOwner",
          "type": "address",
          "indexed": true,
          "internalType": "address"
        }
      ],
      "anonymous": false
    },
    {
      "type": "event",
      "name": "PoolCreated",
      "inputs": [
        {
          "name": "tokenA",
          "type": "address",
          "indexed": true,
          "internalType": "address"
        },
        {
          "name": "tokenB",
          "type": "address",
          "indexed": true,
          "internalType": "address"
        },
        {
          "name": "pool",
          "type": "address",
          "indexed": false,
          "internalType": "address"
        },
        {
          "name": "poolsCount",
          "type": "uint256",
          "indexed": false,
          "internalType": "uint256"
        }
      ],
      "anonymous": false
    },
    {
      "type": "error",
      "name": "OwnableInvalidOwner",
      "inputs": [
        {
          "name": "owner",
          "type": "address",
          "internalType": "address"
        }
      ]
    },
    {
      "type": "error",
      "name": "OwnableUnauthorizedAccount",
      "inputs": [
        {
          "name": "account",
          "type": "address",
          "internalType": "address"
        }
      ]
    }
  ],
  "bytecode": {
    "object": "0x6080604052601e60035561138860055534801561001a575f80fd5b50335f73ffffffffffffffffffffffffffffffffffffffff168173ffffffffffffffffffffffffffffffffffffffff160361008c575f6040517f1e4fbdf700000000000000000000000000000000000000000000000000000000815260040161008391906101e1565b60405180910390fd5b61009b816100e160201b60201c565b503360045f6101000a81548173ffffffffffffffffffffffffffffffffffffffff021916908373ffffffffffffffffffffffffffffffffffffffff1602179055506101fa565b5f805f9054906101000a900473ffffffffffffffffffffffffffffffffffffffff169050815f806101000a81548173ffffffffffffffffffffffffffffffffffffffff021916908373ffffffffffffffffffffffffffffffffffffffff1602179055508173ffffffffffffffffffffffffffffffffffffffff168173ffffffffffffffffffffffffffffffffffffffff167f8be0079c531659141344cd1fd0a4f28419497f9722a3daafe3b4186f6b6457e060405160405180910390a35050565b5f73ffffffffffffffffffffffffffffffffffffffff82169050919050565b5f6101cb826101a2565b9050919050565b6101db816101c1565b82525050565b5f6020820190506101f45f8301846101d2565b92915050565b613763806102075f395ff3fe608060405234801561000f575f80fd5b50600436106100fe575f3560e01c80638da5cb5b11610095578063e343361511610064578063e343361514610276578063e6a43905146102a6578063e74b981b146102d6578063f2fde38b146102f2576100fe565b80638da5cb5b146101fe5780639eed08261461021c578063ced72f871461023a578063ddca3f4314610258576100fe565b8063531aa03e116100d1578063531aa03e1461018a57806369fe0e2d146101ba578063715018a6146101d6578063759cc4f0146101e0576100fe565b80631e3dd18b1461010257806346904840146101325780634bd8d8ca146101505780634ccb20c01461016c575b5f80fd5b61011c60048036038101906101179190610e2f565b61030e565b6040516101299190610e99565b60405180910390f35b61013a610349565b6040516101479190610e99565b60405180910390f35b61016a60048036038101906101659190610e2f565b61036e565b005b6101746103c5565b6040516101819190610e99565b60405180910390f35b6101a4600480360381019061019f9190610edc565b6103ed565b6040516101b19190610e99565b60405180910390f35b6101d460048036038101906101cf9190610e2f565b61048e565b005b6101de6104e5565b005b6101e86104f8565b6040516101f59190610f29565b60405180910390f35b610206610501565b6040516102139190610e99565b60405180910390f35b610224610528565b6040516102319190610f29565b60405180910390f35b61024261052e565b60405161024f9190610f29565b60405180910390f35b610260610537565b60405161026d9190610f29565b60405180910390f35b610290600480360381019061028b9190610edc565b61053d565b60405161029d9190610e99565b60405180910390f35b6102c060048036038101906102bb9190610edc565b610ad8565b6040516102cd9190610e99565b60405180910390f35b6102f060048036038101906102eb9190610f42565b610b15565b005b61030c60048036038101906103079190610f42565b610bce565b005b6002818154811061031d575f80fd5b905f5260205f20015f915054906101000a900473ffffffffffffffffffffffffffffffffffffffff1681565b60045f9054906101000a900473ffffffffffffffffffffffffffffffffffffffff1681565b610376610c52565b6127108111156103bb576040517f08c379a00000000000000000000000000000000000000000000000000000000081526004016103b290610fed565b60405180910390fd5b8060058190555050565b5f60045f9054906101000a900473ffffffffffffffffffffffffffffffffffffffff16905090565b5f60015f8473ffffffffffffffffffffffffffffffffffffffff1673ffffffffffffffffffffffffffffffffffffffff1681526020019081526020015f205f8373ffffffffffffffffffffffffffffffffffffffff1673ffffffffffffffffffffffffffffffffffffffff1681526020019081526020015f205f9054906101000a900473ffffffffffffffffffffffffffffffffffffffff16905092915050565b610496610c52565b6101f48111156104db576040517f08c379a00000000000000000000000000000000000000000000000000000000081526004016104d290611055565b60405180910390fd5b8060038190555050565b6104ed610c52565b6104f65f610cd9565b565b5f600554905090565b5f805f9054906101000a900473ffffffffffffffffffffffffffffffffffffffff16905090565b60055481565b5f600354905090565b60035481565b5f8173ffffffffffffffffffffffffffffffffffffffff168373ffffffffffffffffffffffffffffffffffffffff16036105ac576040517f08c379a00000000000000000000000000000000000000000000000000000000081526004016105a3906110bd565b60405180910390fd5b5f73ffffffffffffffffffffffffffffffffffffffff168373ffffffffffffffffffffffffffffffffffffffff161415801561061457505f73ffffffffffffffffffffffffffffffffffffffff168273ffffffffffffffffffffffffffffffffffffffff1614155b610653576040517f08c379a000000000000000000000000000000000000000000000000000000000815260040161064a90611125565b60405180910390fd5b5f8061065f8585610d9a565b915091505f73ffffffffffffffffffffffffffffffffffffffff1660015f8473ffffffffffffffffffffffffffffffffffffffff1673ffffffffffffffffffffffffffffffffffffffff1681526020019081526020015f205f8373ffffffffffffffffffffffffffffffffffffffff1673ffffffffffffffffffffffffffffffffffffffff1681526020019081526020015f205f9054906101000a900473ffffffffffffffffffffffffffffffffffffffff1673ffffffffffffffffffffffffffffffffffffffff1614610768576040517f08c379a000000000000000000000000000000000000000000000000000000000815260040161075f9061118d565b60405180910390fd5b5f6040518060200161077990610deb565b6020820181038252601f19601f8201166040525090505f83836040516020016107a39291906111f0565b604051602081830303815290604052805190602001209050808251602084015ff594508473ffffffffffffffffffffffffffffffffffffffff1663c0c53b8b8585306040518463ffffffff1660e01b81526004016108039392919061121b565b5f604051808303815f87803b15801561081a575f80fd5b505af115801561082c573d5f803e3d5ffd5b505050508460015f8673ffffffffffffffffffffffffffffffffffffffff1673ffffffffffffffffffffffffffffffffffffffff1681526020019081526020015f205f8573ffffffffffffffffffffffffffffffffffffffff1673ffffffffffffffffffffffffffffffffffffffff1681526020019081526020015f205f6101000a81548173ffffffffffffffffffffffffffffffffffffffff021916908373ffffffffffffffffffffffffffffffffffffffff1602179055508460015f8573ffffffffffffffffffffffffffffffffffffffff1673ffffffffffffffffffffffffffffffffffffffff1681526020019081526020015f205f8673ffffffffffffffffffffffffffffffffffffffff1673ffffffffffffffffffffffffffffffffffffffff1681526020019081526020015f205f6101000a81548173ffffffffffffffffffffffffffffffffffffffff021916908373ffffffffffffffffffffffffffffffffffffffff160217905550600285908060018154018082558091505060019003905f5260205f20015f9091909190916101000a81548173ffffffffffffffffffffffffffffffffffffffff021916908373ffffffffffffffffffffffffffffffffffffffff1602179055508473ffffffffffffffffffffffffffffffffffffffff1663f2fde38b306040518263ffffffff1660e01b8152600401610a359190610e99565b5f604051808303815f87803b158015610a4c575f80fd5b505af1158015610a5e573d5f803e3d5ffd5b505050508273ffffffffffffffffffffffffffffffffffffffff168473ffffffffffffffffffffffffffffffffffffffff167febbbe9dc3a19d2f959ac76ac0372b4983cdfb945f5d6aef4873c36fabb2ba8aa87600280549050604051610ac6929190611250565b60405180910390a35050505092915050565b6001602052815f5260405f20602052805f5260405f205f915091509054906101000a900473ffffffffffffffffffffffffffffffffffffffff1681565b610b1d610c52565b5f73ffffffffffffffffffffffffffffffffffffffff168173ffffffffffffffffffffffffffffffffffffffff1603610b8b576040517f08c379a0000000000000000000000000000000000000000000000000000000008152600401610b8290611125565b60405180910390fd5b8060045f6101000a81548173ffffffffffffffffffffffffffffffffffffffff021916908373ffffffffffffffffffffffffffffffffffffffff16021790555050565b610bd6610c52565b5f73ffffffffffffffffffffffffffffffffffffffff168173ffffffffffffffffffffffffffffffffffffffff1603610c46575f6040517f1e4fbdf7000000000000000000000000000000000000000000000000000000008152600401610c3d9190610e99565b60405180910390fd5b610c4f81610cd9565b50565b610c5a610de4565b73ffffffffffffffffffffffffffffffffffffffff16610c78610501565b73ffffffffffffffffffffffffffffffffffffffff1614610cd757610c9b610de4565b6040517f118cdaa7000000000000000000000000000000000000000000000000000000008152600401610cce9190610e99565b60405180910390fd5b565b5f805f9054906101000a900473ffffffffffffffffffffffffffffffffffffffff169050815f806101000a81548173ffffffffffffffffffffffffffffffffffffffff021916908373ffffffffffffffffffffffffffffffffffffffff1602179055508173ffffffffffffffffffffffffffffffffffffffff168173ffffffffffffffffffffffffffffffffffffffff167f8be0079c531659141344cd1fd0a4f28419497f9722a3daafe3b4186f6b6457e060405160405180910390a35050565b5f808273ffffffffffffffffffffffffffffffffffffffff168473ffffffffffffffffffffffffffffffffffffffff1610610dd6578284610dd9565b83835b915091509250929050565b5f33905090565b6124b68061127883390190565b5f80fd5b5f819050919050565b610e0e81610dfc565b8114610e18575f80fd5b50565b5f81359050610e2981610e05565b92915050565b5f60208284031215610e4457610e43610df8565b5b5f610e5184828501610e1b565b91505092915050565b5f73ffffffffffffffffffffffffffffffffffffffff82169050919050565b5f610e8382610e5a565b9050919050565b610e9381610e79565b82525050565b5f602082019050610eac5f830184610e8a565b92915050565b610ebb81610e79565b8114610ec5575f80fd5b50565b5f81359050610ed681610eb2565b92915050565b5f8060408385031215610ef257610ef1610df8565b5b5f610eff85828601610ec8565b9250506020610f1085828601610ec8565b9150509250929050565b610f2381610dfc565b82525050565b5f602082019050610f3c5f830184610f1a565b92915050565b5f60208284031215610f5757610f56610df8565b5b5f610f6484828501610ec8565b91505092915050565b5f82825260208201905092915050565b7f466163746f72793a20696e76616c69642070726f746f636f6c2066656520706f5f8201527f7274696f6e000000000000000000000000000000000000000000000000000000602082015250565b5f610fd7602583610f6d565b9150610fe282610f7d565b604082019050919050565b5f6020820190508181035f83015261100481610fcb565b9050919050565b7f466163746f72793a2066656520746f6f206869676800000000000000000000005f82015250565b5f61103f601583610f6d565b915061104a8261100b565b602082019050919050565b5f6020820190508181035f83015261106c81611033565b9050919050565b7f466163746f72793a206964656e746963616c20616464726573736573000000005f82015250565b5f6110a7601c83610f6d565b91506110b282611073565b602082019050919050565b5f6020820190508181035f8301526110d48161109b565b9050919050565b7f466163746f72793a207a65726f206164647265737300000000000000000000005f82015250565b5f61110f601583610f6d565b915061111a826110db565b602082019050919050565b5f6020820190508181035f83015261113c81611103565b9050919050565b7f466163746f72793a20706f6f6c206578697374730000000000000000000000005f82015250565b5f611177601483610f6d565b915061118282611143565b602082019050919050565b5f6020820190508181035f8301526111a48161116b565b9050919050565b5f8160601b9050919050565b5f6111c1826111ab565b9050919050565b5f6111d2826111b7565b9050919050565b6111ea6111e582610e79565b6111c8565b82525050565b5f6111fb82856111d9565b60148201915061120b82846111d9565b6014820191508190509392505050565b5f60608201905061122e5f830186610e8a565b61123b6020830185610e8a565b6112486040830184610e8a565b949350505050565b5f6040820190506112635f830185610e8a565b6112706020830184610f1a565b939250505056fe608060405234801561000f575f80fd5b50335f73ffffffffffffffffffffffffffffffffffffffff168173ffffffffffffffffffffffffffffffffffffffff1603610081575f6040517f1e4fbdf7000000000000000000000000000000000000000000000000000000008152600401610078919061019d565b60405180910390fd5b6100908161009d60201b60201c565b50600180819055506101b6565b5f805f9054906101000a900473ffffffffffffffffffffffffffffffffffffffff169050815f806101000a81548173ffffffffffffffffffffffffffffffffffffffff021916908373ffffffffffffffffffffffffffffffffffffffff1602179055508173ffffffffffffffffffffffffffffffffffffffff168173ffffffffffffffffffffffffffffffffffffffff167f8be0079c531659141344cd1fd0a4f28419497f9722a3daafe3b4186f6b6457e060405160405180910390a35050565b5f73ffffffffffffffffffffffffffffffffffffffff82169050919050565b5f6101878261015e565b9050919050565b6101978161017d565b82525050565b5f6020820190506101b05f83018461018e565b92915050565b6122f3806101c35f395ff3fe608060405234801561000f575f80fd5b50600436106100e8575f3560e01c80639c8f9f231161008a578063c0c53b8b11610064578063c0c53b8b1461023d578063c45a015514610259578063d004f0f714610277578063f2fde38b146102a7576100e8565b80639c8f9f23146101bd5780639cd441da146101ee578063aa6ca8081461021e576100e8565b80635f64b55b116100c65780635f64b55b1461014757806370a0823114610165578063715018a6146101955780638da5cb5b1461019f576100e8565b80630902f1ac146100ec5780630fc63d101461010b57806318160ddd14610129575b5f80fd5b6100f46102c3565b60405161010292919061187a565b60405180910390f35b6101136102d3565b60405161012091906118e0565b60405180910390f35b6101316102f8565b60405161013e91906118f9565b60405180910390f35b61014f610301565b60405161015c91906118e0565b60405180910390f35b61017f600480360381019061017a9190611940565b610326565b60405161018c91906118f9565b60405180910390f35b61019d61036c565b005b6101a761037f565b6040516101b491906118e0565b60405180910390f35b6101d760048036038101906101d29190611995565b6103a6565b6040516101e592919061187a565b60405180910390f35b610208600480360381019061020391906119c0565b610662565b60405161021591906118f9565b60405180910390f35b610226610926565b6040516102349291906119fe565b60405180910390f35b61025760048036038101906102529190611a25565b610974565b005b610261610bbf565b60405161026e91906118e0565b60405180910390f35b610291600480360381019061028c9190611a75565b610be4565b60405161029e91906118f9565b60405180910390f35b6102c160048036038101906102bc9190611940565b6111e5565b005b5f80600554600654915091509091565b60025f9054906101000a900473ffffffffffffffffffffffffffffffffffffffff1681565b5f600854905090565b60035f9054906101000a900473ffffffffffffffffffffffffffffffffffffffff1681565b5f60075f8373ffffffffffffffffffffffffffffffffffffffff1673ffffffffffffffffffffffffffffffffffffffff1681526020019081526020015f20549050919050565b610374611269565b61037d5f6112f0565b565b5f805f9054906101000a900473ffffffffffffffffffffffffffffffffffffffff16905090565b5f806103b06113b1565b5f83116103f2576040517f08c379a00000000000000000000000000000000000000000000000000000000081526004016103e990611b33565b60405180910390fd5b8260075f3373ffffffffffffffffffffffffffffffffffffffff1673ffffffffffffffffffffffffffffffffffffffff1681526020019081526020015f20541015610472576040517f08c379a000000000000000000000000000000000000000000000000000000000815260040161046990611b9b565b60405180910390fd5b5f600854905080600554856104879190611be6565b6104919190611c54565b925080600654856104a29190611be6565b6104ac9190611c54565b91505f831180156104bc57505f82115b6104fb576040517f08c379a00000000000000000000000000000000000000000000000000000000081526004016104f290611cce565b60405180910390fd5b8360075f3373ffffffffffffffffffffffffffffffffffffffff1673ffffffffffffffffffffffffffffffffffffffff1681526020019081526020015f205f8282546105479190611cec565b925050819055508360085461055c9190611cec565b6008819055506105ae338460025f9054906101000a900473ffffffffffffffffffffffffffffffffffffffff1673ffffffffffffffffffffffffffffffffffffffff166113f79092919063ffffffff16565b6105fa338360035f9054906101000a900473ffffffffffffffffffffffffffffffffffffffff1673ffffffffffffffffffffffffffffffffffffffff166113f79092919063ffffffff16565b610602611476565b3373ffffffffffffffffffffffffffffffffffffffff167f1dc8bb69df2b8e91fbdcbfcf93d951b3f0000f085a95fe3f7946d6161439245d84848760405161064c93929190611d1f565b60405180910390a25061065d6115b6565b915091565b5f61066b6113b1565b5f8311801561067957505f82115b6106b8576040517f08c379a00000000000000000000000000000000000000000000000000000000081526004016106af90611dc4565b60405180910390fd5b5f60055490505f600654905061071233308760025f9054906101000a900473ffffffffffffffffffffffffffffffffffffffff1673ffffffffffffffffffffffffffffffffffffffff166115bf909392919063ffffffff16565b61076033308660035f9054906101000a900473ffffffffffffffffffffffffffffffffffffffff1673ffffffffffffffffffffffffffffffffffffffff166115bf909392919063ffffffff16565b5f60085490505f81036107d9576103e8610784868861077f9190611be6565b611641565b61078e9190611cec565b93506103e860075f8073ffffffffffffffffffffffffffffffffffffffff1673ffffffffffffffffffffffffffffffffffffffff1681526020019081526020015f2081905550610812565b61080f8382886107e99190611be6565b6107f39190611c54565b8383886108009190611be6565b61080a9190611c54565b6116b8565b93505b5f8411610854576040517f08c379a000000000000000000000000000000000000000000000000000000000815260040161084b90611e52565b60405180910390fd5b8360075f3373ffffffffffffffffffffffffffffffffffffffff1673ffffffffffffffffffffffffffffffffffffffff1681526020019081526020015f205f8282546108a09190611e70565b92505081905550836008546108b59190611e70565b6008819055506108c3611476565b3373ffffffffffffffffffffffffffffffffffffffff167f64b83944e79c3ce8d4c297411de637c3e102d064677aac0c163976ebdcd6f50e87878760405161090d93929190611d1f565b60405180910390a25050506109206115b6565b92915050565b5f8060025f9054906101000a900473ffffffffffffffffffffffffffffffffffffffff1660035f9054906101000a900473ffffffffffffffffffffffffffffffffffffffff16915091509091565b61097c611269565b60095f9054906101000a900460ff16156109cb576040517f08c379a00000000000000000000000000000000000000000000000000000000081526004016109c290611eed565b60405180910390fd5b5f73ffffffffffffffffffffffffffffffffffffffff168373ffffffffffffffffffffffffffffffffffffffff1614158015610a3357505f73ffffffffffffffffffffffffffffffffffffffff168273ffffffffffffffffffffffffffffffffffffffff1614155b610a72576040517f08c379a0000000000000000000000000000000000000000000000000000000008152600401610a6990611f55565b60405180910390fd5b8173ffffffffffffffffffffffffffffffffffffffff168373ffffffffffffffffffffffffffffffffffffffff1603610ae0576040517f08c379a0000000000000000000000000000000000000000000000000000000008152600401610ad790611fbd565b60405180910390fd5b8260025f6101000a81548173ffffffffffffffffffffffffffffffffffffffff021916908373ffffffffffffffffffffffffffffffffffffffff1602179055508160035f6101000a81548173ffffffffffffffffffffffffffffffffffffffff021916908373ffffffffffffffffffffffffffffffffffffffff1602179055508060045f6101000a81548173ffffffffffffffffffffffffffffffffffffffff021916908373ffffffffffffffffffffffffffffffffffffffff160217905550600160095f6101000a81548160ff021916908315150217905550505050565b60045f9054906101000a900473ffffffffffffffffffffffffffffffffffffffff1681565b5f610bed6113b1565b60025f9054906101000a900473ffffffffffffffffffffffffffffffffffffffff1673ffffffffffffffffffffffffffffffffffffffff168373ffffffffffffffffffffffffffffffffffffffff161480610c94575060035f9054906101000a900473ffffffffffffffffffffffffffffffffffffffff1673ffffffffffffffffffffffffffffffffffffffff168373ffffffffffffffffffffffffffffffffffffffff16145b610cd3576040517f08c379a0000000000000000000000000000000000000000000000000000000008152600401610cca90612025565b60405180910390fd5b5f8211610d15576040517f08c379a0000000000000000000000000000000000000000000000000000000008152600401610d0c9061208d565b60405180910390fd5b5f60025f9054906101000a900473ffffffffffffffffffffffffffffffffffffffff1673ffffffffffffffffffffffffffffffffffffffff168473ffffffffffffffffffffffffffffffffffffffff1614610d915760025f9054906101000a900473ffffffffffffffffffffffffffffffffffffffff16610db4565b60035f9054906101000a900473ffffffffffffffffffffffffffffffffffffffff165b90505f60025f9054906101000a900473ffffffffffffffffffffffffffffffffffffffff1673ffffffffffffffffffffffffffffffffffffffff168573ffffffffffffffffffffffffffffffffffffffff1614610e1357600654610e17565b6005545b90505f60025f9054906101000a900473ffffffffffffffffffffffffffffffffffffffff1673ffffffffffffffffffffffffffffffffffffffff168673ffffffffffffffffffffffffffffffffffffffff1614610e7657600554610e7a565b6006545b90505f60045f9054906101000a900473ffffffffffffffffffffffffffffffffffffffff1673ffffffffffffffffffffffffffffffffffffffff1663ced72f876040518163ffffffff1660e01b8152600401602060405180830381865afa158015610ee7573d5f803e3d5ffd5b505050506040513d601f19601f82011682018060405250810190610f0b91906120bf565b9050610f19868484846116d0565b94505f8511610f5d576040517f08c379a0000000000000000000000000000000000000000000000000000000008152600401610f5490612134565b60405180910390fd5b5f6127108288610f6d9190611be6565b610f779190611c54565b90505f60045f9054906101000a900473ffffffffffffffffffffffffffffffffffffffff1673ffffffffffffffffffffffffffffffffffffffff1663759cc4f06040518163ffffffff1660e01b8152600401602060405180830381865afa158015610fe4573d5f803e3d5ffd5b505050506040513d601f19601f8201168201806040525081019061100891906120bf565b90505f612710828461101a9190611be6565b6110249190611c54565b90505f81846110339190611cec565b90505f8211156110fd575f60045f9054906101000a900473ffffffffffffffffffffffffffffffffffffffff1673ffffffffffffffffffffffffffffffffffffffff16634ccb20c06040518163ffffffff1660e01b8152600401602060405180830381865afa1580156110a8573d5f803e3d5ffd5b505050506040513d601f19601f820116820180604052508101906110cc9190612166565b90506110fb3382858f73ffffffffffffffffffffffffffffffffffffffff166115bf909392919063ffffffff16565b505b6111353330848d61110e9190611cec565b8e73ffffffffffffffffffffffffffffffffffffffff166115bf909392919063ffffffff16565b611160338a8a73ffffffffffffffffffffffffffffffffffffffff166113f79092919063ffffffff16565b611168611476565b8a73ffffffffffffffffffffffffffffffffffffffff163373ffffffffffffffffffffffffffffffffffffffff167f2a9237ff5aa599ef4c5ee4b1142b53429d5755e2685fe6288b2e3320202115f58c8c6040516111c792919061187a565b60405180910390a350505050505050506111df6115b6565b92915050565b6111ed611269565b5f73ffffffffffffffffffffffffffffffffffffffff168173ffffffffffffffffffffffffffffffffffffffff160361125d575f6040517f1e4fbdf700000000000000000000000000000000000000000000000000000000815260040161125491906118e0565b60405180910390fd5b611266816112f0565b50565b6112716117c0565b73ffffffffffffffffffffffffffffffffffffffff1661128f61037f565b73ffffffffffffffffffffffffffffffffffffffff16146112ee576112b26117c0565b6040517f118cdaa70000000000000000000000000000000000000000000000000000000081526004016112e591906118e0565b60405180910390fd5b565b5f805f9054906101000a900473ffffffffffffffffffffffffffffffffffffffff169050815f806101000a81548173ffffffffffffffffffffffffffffffffffffffff021916908373ffffffffffffffffffffffffffffffffffffffff1602179055508173ffffffffffffffffffffffffffffffffffffffff168173ffffffffffffffffffffffffffffffffffffffff167f8be0079c531659141344cd1fd0a4f28419497f9722a3daafe3b4186f6b6457e060405160405180910390a35050565b6002600154036113ed576040517f3ee5aeb500000000000000000000000000000000000000000000000000000000815260040160405180910390fd5b6002600181905550565b611471838473ffffffffffffffffffffffffffffffffffffffff1663a9059cbb858560405160240161142a929190612191565b604051602081830303815290604052915060e01b6020820180517bffffffffffffffffffffffffffffffffffffffffffffffffffffffff83818316178352505050506117c7565b505050565b60025f9054906101000a900473ffffffffffffffffffffffffffffffffffffffff1673ffffffffffffffffffffffffffffffffffffffff166370a08231306040518263ffffffff1660e01b81526004016114d091906118e0565b602060405180830381865afa1580156114eb573d5f803e3d5ffd5b505050506040513d601f19601f8201168201806040525081019061150f91906120bf565b60058190555060035f9054906101000a900473ffffffffffffffffffffffffffffffffffffffff1673ffffffffffffffffffffffffffffffffffffffff166370a08231306040518263ffffffff1660e01b815260040161156f91906118e0565b602060405180830381865afa15801561158a573d5f803e3d5ffd5b505050506040513d601f19601f820116820180604052508101906115ae91906120bf565b600681905550565b60018081905550565b61163b848573ffffffffffffffffffffffffffffffffffffffff166323b872dd8686866040516024016115f4939291906121b8565b604051602081830303815290604052915060e01b6020820180517bffffffffffffffffffffffffffffffffffffffffffffffffffffffff83818316178352505050506117c7565b50505050565b5f60038211156116a6578190505f600160028461165e9190611c54565b6116689190611e70565b90505b818110156116a05780915060028182856116859190611c54565b61168f9190611e70565b6116999190611c54565b905061166b565b506116b3565b5f82146116b257600190505b5b919050565b5f8183106116c657816116c8565b825b905092915050565b5f808511611713576040517f08c379a000000000000000000000000000000000000000000000000000000000815260040161170a90612237565b60405180910390fd5b5f8411801561172157505f83115b611760576040517f08c379a00000000000000000000000000000000000000000000000000000000081526004016117579061229f565b60405180910390fd5b5f8261271061176f9190611cec565b8661177a9190611be6565b90505f84826117899190611be6565b90505f826127108861179b9190611be6565b6117a59190611e70565b905080826117b39190611c54565b9350505050949350505050565b5f33905090565b5f8060205f8451602086015f885af1806117e6576040513d5f823e3d81fd5b3d92505f519150505f82146117ff57600181141561181a565b5f8473ffffffffffffffffffffffffffffffffffffffff163b145b1561185c57836040517f5274afe700000000000000000000000000000000000000000000000000000000815260040161185391906118e0565b60405180910390fd5b50505050565b5f819050919050565b61187481611862565b82525050565b5f60408201905061188d5f83018561186b565b61189a602083018461186b565b9392505050565b5f73ffffffffffffffffffffffffffffffffffffffff82169050919050565b5f6118ca826118a1565b9050919050565b6118da816118c0565b82525050565b5f6020820190506118f35f8301846118d1565b92915050565b5f60208201905061190c5f83018461186b565b92915050565b5f80fd5b61191f816118c0565b8114611929575f80fd5b50565b5f8135905061193a81611916565b92915050565b5f6020828403121561195557611954611912565b5b5f6119628482850161192c565b91505092915050565b61197481611862565b811461197e575f80fd5b50565b5f8135905061198f8161196b565b92915050565b5f602082840312156119aa576119a9611912565b5b5f6119b784828501611981565b91505092915050565b5f80604083850312156119d6576119d5611912565b5b5f6119e385828601611981565b92505060206119f485828601611981565b9150509250929050565b5f604082019050611a115f8301856118d1565b611a1e60208301846118d1565b9392505050565b5f805f60608486031215611a3c57611a3b611912565b5b5f611a498682870161192c565b9350506020611a5a8682870161192c565b9250506040611a6b8682870161192c565b9150509250925092565b5f8060408385031215611a8b57611a8a611912565b5b5f611a988582860161192c565b9250506020611aa985828601611981565b9150509250929050565b5f82825260208201905092915050565b7f506f6f6c3a20696e73756666696369656e74206c6971756964697479206275725f8201527f6e65640000000000000000000000000000000000000000000000000000000000602082015250565b5f611b1d602383611ab3565b9150611b2882611ac3565b604082019050919050565b5f6020820190508181035f830152611b4a81611b11565b9050919050565b7f506f6f6c3a20696e73756666696369656e742062616c616e63650000000000005f82015250565b5f611b85601a83611ab3565b9150611b9082611b51565b602082019050919050565b5f6020820190508181035f830152611bb281611b79565b9050919050565b7f4e487b71000000000000000000000000000000000000000000000000000000005f52601160045260245ffd5b5f611bf082611862565b9150611bfb83611862565b9250828202611c0981611862565b91508282048414831517611c2057611c1f611bb9565b5b5092915050565b7f4e487b71000000000000000000000000000000000000000000000000000000005f52601260045260245ffd5b5f611c5e82611862565b9150611c6983611862565b925082611c7957611c78611c27565b5b828204905092915050565b7f506f6f6c3a20696e73756666696369656e7420616d6f756e74730000000000005f82015250565b5f611cb8601a83611ab3565b9150611cc382611c84565b602082019050919050565b5f6020820190508181035f830152611ce581611cac565b9050919050565b5f611cf682611862565b9150611d0183611862565b9250828203905081811115611d1957611d18611bb9565b5b92915050565b5f606082019050611d325f83018661186b565b611d3f602083018561186b565b611d4c604083018461186b565b949350505050565b7f506f6f6c3a20696e73756666696369656e74206465706f73697420616d6f756e5f8201527f7473000000000000000000000000000000000000000000000000000000000000602082015250565b5f611dae602283611ab3565b9150611db982611d54565b604082019050919050565b5f6020820190508181035f830152611ddb81611da2565b9050919050565b7f506f6f6c3a20696e73756666696369656e74206c6971756964697479206d696e5f8201527f7465640000000000000000000000000000000000000000000000000000000000602082015250565b5f611e3c602383611ab3565b9150611e4782611de2565b604082019050919050565b5f6020820190508181035f830152611e6981611e30565b9050919050565b5f611e7a82611862565b9150611e8583611862565b9250828201905080821115611e9d57611e9c611bb9565b5b92915050565b7f506f6f6c3a20616c726561647920696e697469616c697a6564000000000000005f82015250565b5f611ed7601983611ab3565b9150611ee282611ea3565b602082019050919050565b5f6020820190508181035f830152611f0481611ecb565b9050919050565b7f506f6f6c3a207a65726f206164647265737300000000000000000000000000005f82015250565b5f611f3f601283611ab3565b9150611f4a82611f0b565b602082019050919050565b5f6020820190508181035f830152611f6c81611f33565b9050919050565b7f506f6f6c3a206964656e746963616c20616464726573736573000000000000005f82015250565b5f611fa7601983611ab3565b9150611fb282611f73565b602082019050919050565b5f6020820190508181035f830152611fd481611f9b565b9050919050565b7f506f6f6c3a20696e76616c696420696e70757420746f6b656e000000000000005f82015250565b5f61200f601983611ab3565b915061201a82611fdb565b602082019050919050565b5f6020820190508181035f83015261203c81612003565b9050919050565b7f506f6f6c3a20696e73756666696369656e7420696e70757420616d6f756e74005f82015250565b5f612077601f83611ab3565b915061208282612043565b602082019050919050565b5f6020820190508181035f8301526120a48161206b565b9050919050565b5f815190506120b98161196b565b92915050565b5f602082840312156120d4576120d3611912565b5b5f6120e1848285016120ab565b91505092915050565b7f506f6f6c3a20696e73756666696369656e74206f757470757420616d6f756e745f82015250565b5f61211e602083611ab3565b9150612129826120ea565b602082019050919050565b5f6020820190508181035f83015261214b81612112565b9050919050565b5f8151905061216081611916565b92915050565b5f6020828403121561217b5761217a611912565b5b5f61218884828501612152565b91505092915050565b5f6040820190506121a45f8301856118d1565b6121b1602083018461186b565b9392505050565b5f6060820190506121cb5f8301866118d1565b6121d860208301856118d1565b6121e5604083018461186b565b949350505050565b7f4d6174683a20494e53554646494349454e545f494e5055545f414d4f554e54005f82015250565b5f612221601f83611ab3565b915061222c826121ed565b602082019050919050565b5f6020820190508181035f83015261224e81612215565b9050919050565b7f4d6174683a20494e53554646494349454e545f4c4951554944495459000000005f82015250565b5f612289601c83611ab3565b915061229482612255565b602082019050919050565b5f6020820190508181035f8301526122b68161227d565b905091905056fea26469706673582212203ff0bb78111e7f86d3862d6ec5d491568dfeda809e3ece41b15289fe64a1f8d464736f6c634300081a0033a26469706673582212205249f333aa4eb48503bd4db8231d02a8b142275bb18e29ab166ff8f1baa9c33864736f6c634300081a0033",
    "linkReferences": {}
  },
  "methodIdentifiers": {
    "allPairs(uint256)": "1e3dd18b",
    "createPool(address,address)": "e3433615",
    "fee()": "ddca3f43",
    "feeRecipient()": "46904840",
    "getFee()": "ced72f87",
    "getFeeRecipient()": "4ccb20c0",
    "getPair(address,address)": "e6a43905",
    "getPool(address,address)": "531aa03e",
    "getProtocolFeePortion()": "759cc4f0",
    "owner()": "8da5cb5b",
    "protocolFeePortion()": "9eed0826",
    "renounceOwnership()": "715018a6",
    "setFee(uint256)": "69fe0e2d",
    "setFeeRecipient(address)": "e74b981b",
    "setProtocolFeePortion(uint256)": "4bd8d8ca",
    "transferOwnership(address)": "f2fde38b"
  },
  "id": 34
}